:100000000C949C040C94D4040C94D4040C94D40448
:100010000C94D4040C94D4040C94D4040C94D40400
:100020000C94D4040C94D4040C94472C0C94032CFE
:100030000C94442D0C94D4040C94D4040C94D40447
:100040000C94D4040C94D4040C94D4040C94D404D0
:100050000C94D4040C94202D0C94D4040C94D4044B
:100060000C94D4040C94D4040C94D4040C94D404B0
:100070000C94D4040C94D4040C94D4040C94D404A0
:100080000C94D4040C94D4040C94D4040C94D40490
:100090000C94D4040C94D4040C94D4040C94D40480
:1000A0000C94D4040C94D4040C94D40405010902D7
:1000B000A10185020901A100050919012905150001
:1000C00025019505750181029501750381010501E1
:1000D000093009311581257F950275088106093897
:1000E0001581257F950175088106050C0A380215D2
:1000F00081257F950175088106C0C005010980A191
:1001000001850319012AB700150126B7009501756D
:10011000108100C0050C0901A101850419012AA064
:1001200002150126A002950175108100C005010984
:1001300006A1018506050719E029E71500250195A7
:1001400008750181020507190029EF1500250195A1
:10015000F0750181020508190129059505750191C0
:1001600002950175039101C00660FF0961A10109B3
:1001700062150026FF0095207508810209631500AD
:1001800026FF00952075089102C005010906A1010E
:10019000050719E029E71500250195087501810279
:1001A0009501750881010507190029FF150026FF33
:1001B0000095067508810005081901290595057542
:1001C000019102950175039101C0FD377A585A00DB
:1001D0000004E6D6B4460200210116000000742F88
:1001E000E5A3E007FE025D5D003D8889C65436C385
:1001F000174FE4F8B04BEF786969D7058D6421CBD0
:1002000022A002378F694844B2C13E2267141D29DB
:100210002F0B96F61CF21078EADEA8EFDEB225DB93
:100220005C07D067B43F5F981033E21D5A828308A1
:10023000C2D66205C49C32FB3A635FC10BA2B62FE3
:100240001F950BD3CC45A89DCC5647796D352EBF55
:10025000644C0771564A56DD4EA666717613353FDB
:100260007586F6B3FB94FD7F645C25BD6B087E4DFF
:10027000C9CA8DD80B0A4B984046CD626D4FC0F568
:10028000D579F72FDB1F1D1EA591B1A0C2DC54103C
:100290007572A1543AECE835DEAF327714FD305870
:1002A000CFCB1720ABD8F87885166014CFB54AF1BC
:1002B0002FF8FCC3F464F8E22F67430C83B94E3087
:1002C000BA409E9B526F52ADC77853F96AD3334000
:1002D000263DBEE735DC7DA69B54FC2D5D8E1FD1EF
:1002E000E6BD56D0CDC6EFE7B955E9AAED77C173A3
:1002F000CF1513B7565A7FC31E73EE947F73F4560F
:100300000D24FCA99DA3996EE4DDB018FE31E88CA4
:100310009D4F197FFBC1E63209E03FB11324DBDDBD
:10032000A863F5A9DB9142616DF1B48AB67CD6234E
:10033000FF5ACF1A6ABAE51B9B56045D469DB4ADC1
:1003400031AEA993280B3C4B63B49501A3D0F026A2
:10035000F092276AA9B1E91E17985D49424DA53070
:1003600069DCC80DE5D54BBE899705EDEE0A86041C
:10037000584AE2C9C6AFDB7B35AB04B222FD91100F
:10038000640E05A45BEB3D0E4E611094168577D587
:100390007A3FAFEA58FD7F3614E0A5DBDA30F38F01
:1003A000DBE1EE235EB7889E6E2C6283386E61348B
:1003B0007D03433FF8ECDBFB23EA61EDC41A949C18
:1003C000AE84F8C1A5DBBDB3412FBF339ED769B959
:1003D0006ACCCEB36C38F52D899BAE4E666F8386A2
:1003E0004CE7879D3E338298EC8CA47BA7953C58C4
:1003F000A528ED2F1E623BF8B858042ABB220BBB80
:1004000045DAF7FC2CF880DC545A569AEECE5B178E
:10041000B306325A576A415A145BAD20B6774ECCB8
:1004200029DB92852E7008903589744039F15AF095
:1004300012CB7DC2875D2CAFE02DA40B34C7906A30
:100440007FBADF27EC0200000000A2779D4F07056E
:100450004C800001F904FF0F0000007B11D1B1C4F2
:1004600067FB020000000004595A0100010001006E
:100470000100010001000100010001000100010074
:100480000100010001000100010001000100010064
:100490000100010001000100010001000100010054
:1004A0000100010000000100010001000100010045
:1004B0000100010001000100010001000100010034
:1004C0000100000001000100010001000100010025
:1004D0000100010001000100010001000100010014
:1004E0000000010001000000010001000000010007
:1004F00001000000010001000100010001000000F6
:1005000001000100010001000100010001000100E3
:1005100001000100010001000100010001000100D3
:1005200001000100010001000100010001000100C3
:1005300001000100010001000100000001000100B4
:1005400001000100010001000100010001000100A3
:100550000100010001000100000001000100010094
:100560000100010001000100010001000100010083
:100570000100010001000000010001000000010075
:100580000100000001000100000001000100010065
:100590000100010000000100010001000100010054
:1005A0000100010001000100010001000100010043
:1005B0000100010001000100010001000100010033
:1005C0000100010001000100010001000100010023
:1005D0000000010001000100010001000100010014
:1005E0000100010001000100010001000100000004
:1005F00001000100010001000100010001000100F3
:1006000001000100010001000100010000000100E3
:1006100001000000010001000000010001000000D5
:1006200001000100010001000100000001000100C3
:1006300001000100010001000100010001000100B2
:1006400001000100010001000100010001000100A2
:100650000100010001000100010001000100010092
:100660000100010001000000010001000100010083
:100670000100010001000100010001000100010072
:100680000100010000000100010001000100010063
:100690000100010001000100010001000100010052
:1006A0000100000001000100000001000100000045
:1006B0000100010000000100010001000100010033
:1006C0000000010001000904550F880F000002001E
:1006D00002000504550F880F0000030001000A0402
:1006E000550F880F000004000200EF03550F880F1C
:1006F0004D08050001000B04550F880F000006008F
:100700000200F103550F880F0000070002000704E4
:10071000550F880F0000080001000C04550F880FCA
:10072000000009000200F303550F880F28080A0093
:100730000200F503550F880F28080B000200F7038D
:10074000550F880F28080C000200F903550F880F79
:1007500028080D000200FB03550F880F28080E0023
:100760000200FD03550F880F28080F000200FF0349
:10077000550F880F2808100002000104550F880F3C
:100780002808110002000304550F880F28081200E2
:1007900002000D04550F880F0000130002000F0423
:1007A000550F880F0000140001001104550F880F29
:1007B0000000150000000000AE07E416000009026A
:1007C0005B00030100A0FA0904000001030101001D
:1007D00009211101000122400007058103080001E1
:1007E0000904010002030000000921110100012297
:1007F00022000705820320000107050303200001F2
:100800000904020001030000000921110100012276
:10081000BC00070584032000011201000200000053
:1008200008EDFE01000100010203011C03760069CE
:100830000061006C003A006600360034006300324C
:100840000062003300630000001C03710061007A45
:100850000069006D006F0064006F002000760031B9
:10086000002E00310000001A034D0041004E0055DB
:10087000004600410043005400550052004500521C
:100880000000000403090400000000000000000054
:100890000000000000000000000000000000000058
:1008A00000000000000000000000007E0F00D4FFE8
:1008B000FFFFC70000007800000000000000002AD1
:1008C0002B280000000000000000000000000000D5
:1008D000000029000000002C1E3420212224342690
:1008E00027252E362D3738271E1F20212223242589
:1008F000263333362E37381F0405060708090A0B3E
:100900000C0D0E0F101112131415161718191A1BAF
:100910001C1D2F3130232D350405060708090A0B4D
:100920000C0D0E0F101112131415161718191A1B8F
:100930001C1D2F3130354C0011241FBECFEFDAE0E3
:10094000DEBFCDBF04B603FE18C08091180590919C
:100950001905A0911A05B0911B058730904BA7404F
:10096000B04B59F4109218051092190510921A05FF
:1009700010921B05E0E0F8E3099511E0A0E0B1E07A
:10098000EAE5FBE602C005900D92A837B107D9F75A
:1009900025E0A8E7B1E001C01D92A831B207E1F758
:1009A0000E946B2D0C9480350C940000E8EDF0E073
:1009B00080818E7F80831092E2001092DA00109284
:1009C000E100A0EEB0E08C9181608C9380818F7704
:1009D000808319BCA7EDB0E08C918E7F8C938081D1
:1009E0008F7E80831092E70408952091E400309177
:1009F000E50095E6A9012091EC00822F817020FF8F
:100A000006C08091E80080FF06C080E00895209134
:100A1000E80022FD1AC080910C05882389F08530FA
:100A200089F08091EB0085FD0FC02091E4003091AA
:100A3000E50042175307F9F29150E1F684E008957A
:100A400082E0089583E0089581E00895EF92FF9297
:100A50000F931F93CF937C018B010E94F504C82F45
:100A6000811117C08091E80085FD0BC08091E800DE
:100A70008E778093E8000E94F504882399F3C82FAD
:100A800008C0F70181917F018093F10001501109A5
:100A900049F78C2FCF911F910F91FF90EF90089500
:100AA00080910E0587FF13C08091E80082FF06C089
:100AB0008091E8008B778093E80004C080910C055A
:100AC0008111F2CF089580910C058823D9F380918C
:100AD000E80080FFF8CF8091E8008E77ECCF982F68
:100AE0009093E900242F762F50E0891731F0709110
:100AF000EC002091ED005091F00021FD07C09F5FB8
:100B0000973071F78093E90081E008953091EB0010
:100B10003E7F3093EB003091ED003D7F3093ED0050
:100B20003091EB0031603093EB007093EC00209338
:100B3000ED005093F0002091EE0027FDE0CF80E023
:100B40000895B0E0A0E0E7EAF5E00C94D334C8EDF6
:100B5000D0E088818F7E8883E7EDF0E0808181603E
:100B6000808384E082BF81E08093E70488818E7F68
:100B7000888302EE10E0F80110821092DA0081EE14
:100B8000C82ED12CF601108288818F7788838881C6
:100B90008068888388818F7D888319BC10920C05BA
:100BA00010920D0510920B0510920A0590EEE92E99
:100BB000F12CF70180818B7F80838881816088831D
:100BC00042E060E080E00E946F05F60180818E7F48
:100BD0008083F80180818160808380818860808348
:100BE000F70180818E7F8083888180618883CDB783
:100BF000DEB7E8E00C94EF34FC018091140590918D
:100C0000150586179707A0F06115710529F49091D5
:100C1000E8009E779093E80090E06115710551F42B
:100C2000911108C08091E80082FF34C080E00895EF
:100C3000BC01F2CF80910C058823C1F18530C1F150
:100C40008091E80083FD30C08091E80082FDEACF0A
:100C50008091E80080FFE1CF8091F3002091F200C5
:100C6000382F6115710519F02830310558F091E0E1
:100C70002830310509F090E02091E8002E7720938C
:100C8000E800CBCF81918093F100615071092F5F13
:100C90003F4FE7CF80910C05882341F0853041F02C
:100CA0008091E80083FFBECF81E0089582E008953F
:100CB00083E0089508958091E90408959C014FB759
:100CC000F8948091DE049091DF04A091E004B0914B
:100CD000E1044FBF821B930B08952FB7F8946091E6
:100CE000DE047091DF048091E0049091E1042FBF55
:100CF00008952FB7F8948091DE049091DF04A091BD
:100D0000E004B091E1042FBF089520911B0122233C
:100D1000C1F02091E20427FF14C0E62FE695E69586
:100D2000E695EE31F8F4E80FF92FF11D677021E038
:100D300030E001C0220F6A95EAF78281822B82831C
:100D40000895FC0132962FEF30E04191641751F085
:100D50002F3F19F4411101C0232F3F5F3630A9F70F
:100D60002F3F09F40895820F911D27FD9A95FC01EC
:100D7000628308952091DB043091DC042817390741
:100D800071F09093DC048093DB04E091D904F0913E
:100D9000DA04309721F00084F185E02D099508955B
:100DA0002091D7043091D8042817390771F0909317
:100DB000D8048093D704E091D904F091DA043097F5
:100DC00021F00680F781E02D09950895E091D9047E
:100DD000F091DA04309729F00190F081E02D099527
:100DE000089580E00895CF93DF93EC014091C7040C
:100DF0005091C8046091C9047091CA042FB7F89447
:100E00008091DE049091DF04A091E004B091E104B0
:100E10002FBF841B950BA60BB70B843F9140A105F8
:100E2000B10518F58091C7049091C804A091C90438
:100E3000B091CA048093C3049093C404A093C504E2
:100E4000B093C60484EF91E0A0E0B0E08093BF04CB
:100E50009093C004A093C104B093C204D093CF0474
:100E6000C093CE04DF91CF9108950E946D066093E8
:100E7000C3047093C4048093C5049093C60482E3B2
:100E800090E0A0E0B0E0E2CFFC018481862351F441
:100E900092819923B9F06923808583FF05C081E0A1
:100EA00061110FC080E00895892F8F7092959F7017
:100EB000982B862F8F7062956F70682B81E0961348
:100EC000F1CF089581E0FDCF452B39F0682381E013
:100ED0006F3F09F080E08170089581E0FCCFDC0174
:100EE0006091BB048091BC04962F891301C00895C2
:100EF000292F30E0F901EE0FFF1FED54FB4F408129
:100F000051814A175B07A1F487E08A9FA0018B9F5C
:100F1000500D112445585B4F81E0FA0184839613EC
:100F2000E6CF2F5F3F4F237033272093BB040895F4
:100F30002F5F3F4F922F9370D8CF109218041092CA
:100F40001704EBE7F4E08581811102C01482168258
:100F5000379684E0E33BF807B1F70895B0E0A0E0EE
:100F6000E4EBF7E00C94D1348FEF9FEF4430510560
:100F700008F469C04091E20441FB882780F990E0C1
:100F8000880F991F42FB002700F910E0000F111F86
:100F9000000F111F802B912B40FBCC24C0F8D12CCB
:100FA0008C299D2943FB222720F9C22FE0E0DE2F68
:100FB00053E0CC0FDD1F5A95E1F78C2B9D2B44FBA2
:100FC000AA27A0F9B0E0E4E0AA0FBB1FEA95E1F779
:100FD0008A2B9B2B45FBEE27E0F9F0E0A5E0EE0F16
:100FE000FF1FAA95E1F78E2B9F2B46FB222720F9A6
:100FF00030E0B6E0220F331FBA95E1F7822B932B36
:1010000047FB222720F930E03695322F22273795EB
:101010002795822B932B2091E304322F3170F32EEE
:10102000E82EF92A26952170B22EBB0CA82EBF28D7
:10103000C501BB0CAA0BBB0BFB0180839183A28370
:10104000B38390E080E0CDB7DEB7EAE00C94ED34F6
:10105000EFEEF3E0848195812AE030E0B9010E944F
:101060009434609316018681809315018285809364
:10107000140184858093130186859785B9010E94A8
:101080009434609312018089809311018289809346
:101090001001848980930F0108958091EF0390914E
:1010A000F00390931801809317010895EFE7F2E0A1
:1010B00090E080E068E67BE24FE85BE22DED3AE20B
:1010C0007783668351874087338722879587848714
:1010D00001963E968830910599F7089581152CE583
:1010E000920741F420910D0130910E01232B11F450
:1010F00090E080E008950E9479069C019091690239
:1011000080916A02982B21F0309366022093650249
:1011100090916B0280916C02982B21F030936402C5
:1011200020936302E091D904F091DA04309749F0FA
:1011300082E0809367020480F581E02D87E692E0EB
:101140000995089590916902803F59F480916A024F
:1011500087FF0DC010926A0291110BC010926102BC
:1011600008C0813F81F480916A0218169CF399238C
:1011700081F080916B0290916C02892B09F064C020
:10118000109260020895823F49F497FFF0CF1092C9
:10119000690280916A028111ECCFE0CF833F19F49C
:1011A0001916ACF3E4CF20916B02893F29F4121693
:1011B000F4F610926B02DBCF8A3F19F427FFD7CFEA
:1011C000F8CF20916C028B3F29F427FFD0CF1092EB
:1011D0006C02CDCF8C3F19F41216CCF3C8CF843FEC
:1011E00031F4809168028E7F80936802C0CF853F82
:1011F00021F4809168028D7FF7CF863F21F48091A2
:1012000068028B7FF1CF873F21F480916802877F4E
:10121000EBCF883F21F4809168028F7EE5CF8D3F30
:1012200031F4809162028E7F80936202A0CF8E3F64
:1012300021F4809162028D7FF7CF8F3F09F097CF25
:10124000809162028B7FF0CF08958091620280FFCF
:101250000CC06091100170E0759567957595679564
:101260006115710549F1862F089581FF06C06091CF
:10127000100170E075956795F3CF6091100182FDC4
:101280000BC0909160029923A1F060910F018091B1
:101290001001961738F0682F70E06038710500F380
:1012A0008FE70895899FC001112470E00E94A8343F
:1012B000F4CF61E070E0D7CF81E0089580916202C1
:1012C0006091F7037091F80380FF16C0209114011C
:1012D000269FC001279F900D1124BC01769567952C
:1012E000769567956038710508F043C06115710502
:1012F00009F441C0862F089581FF0BC0209114018D
:10130000269FC001279F900D1124BC0176956795FB
:10131000E9CF82FF09C0809114019B01829FB00137
:10132000839F700D1124DECF209161022223D1F220
:101330009091130180911401482F50E0291748F033
:10134000CB01849FB001859F700D949F700D112477
:10135000C9CF289F90011124269FA001279F500DDF
:10136000369F500D1124692F70E0CA010E949434F9
:10137000B9CF8FE7089581E00895803F31F40E944E
:101380005E09819580936A020895813F19F40E9455
:101390005E09F8CF823F31F40E945E098195809307
:1013A00069020895833F19F40E945E09F8CF893FCE
:1013B00029F40E94250980936B0208958A3F21F445
:1013C0000E9425098195F7CF8B3F31F40E942509B2
:1013D000819580936C0208958C3F19F40E94250931
:1013E000F8CF843F31F48091680281608093680275
:1013F0000895853F21F4809168028260F7CF863F8F
:1014000021F4809168028460F1CF873F21F48091BC
:1014100068028860EBCF883F21F480916802806188
:10142000E5CF8D3F31F4809162028160809362024A
:1014300008958E3F21F4809162028260F7CF8F3F42
:10144000B9F7809162028460F1CF80E00895F8944A
:10145000E82FE295EF70F0E031A1282F2F7081E0A6
:1014600090E001C0880F2A95EAF7982F9095932372
:1014700091A392A1892B82A3789408959091E2047C
:1014800092FF06C0282F28712830F9F4877F8460E6
:1014900093FF06C0282F28712831F1F4877E8461DC
:1014A0002091E30420FF06C0382F38713830D9F47A
:1014B000877F816021FF06C0282F28712831D1F451
:1014C000877E816194FD877E0895282F24712430C2
:1014D000F9F68B7F8860DCCF282F2471243101F747
:1014E0008B7E8861DDCF382F3171313019F78E7FD7
:1014F0008860E0CF282F2171213121F78E7E88610D
:10150000E1CFCF93DF93EC0182389105B1F108F080
:1015100040C08133910509F49DC048F58932910599
:1015200009F48DC08A9709F49CC0C11521E5D20742
:1015300008F0C3C0C11530E5D30708F01EC1C83E8E
:10154000D10508F0A3C0C13ED10588F5C83AD10540
:1015500008F08EC0C53AD10508F007C1C130D105E9
:1015600031F1209721F1C430D10508F545C085330C
:10157000910509F45FC0C997C1F68091E2048370B8
:1015800009F044C18091E30483FF11C0C9E2D0E0B7
:101590000EC0833E910599F170F4803E910501F1F2
:1015A000823E910511F68091E20482FD21C0CE01B8
:1015B000DF91CF910895863E910561F1873E9105B7
:1015C00071F1843E910509F0B0CF8091E30481FF71
:1015D000EECF8091E204C7EED0E084FD0DC0E7CFEE
:1015E0008091E20480FD33C09091E30490FFDFCF4F
:1015F000C3EED0E084FFDBCFD0E0C0E0D8CF809155
:10160000E20482FD00C19091E30490FDFFC084FFDD
:10161000CECFF2CF8091E20483FDDDCFC8CF8091A1
:10162000E20483FDF6C09091E30491FFF0CFC4EE95
:10163000D0E0BDCF8091E20485FFB9CFA7CF8091E4
:10164000E20485FDE9C08091E30483FFB0CFC9E3E4
:10165000D0E0ADCF8091E20486FFA9CFCAE2D0E00E
:10166000A6CF8091E20486FFA2CFC1E3D0E09FCF56
:10167000CF3BD10508F6C85AD0E0CC0FDD1FC95DBD
:10168000DE4F0990D881C02DD46491CFC11540E2BE
:10169000D40758F4C11581E0D80708F088CFC03FBF
:1016A000D10508F4A9CFD06582CFC11520E4D207B7
:1016B00008F4A2CFDF70D06A7ACFC11535E5D30721
:1016C00018F5C11544E5D40708F085C0C11583E5B8
:1016D000D80708F06CC0C11522E5D20708F462C033
:1016E000CE018370992721E030E002C0220F331F22
:1016F0008A95E2F7C695C69580E2C89FE00111245D
:10170000C22BD32BDC6853CFC11539E5D307A8F41E
:10171000C11548E5D40708F063C0C11586E5D807B0
:1017200008F06ACF8C2F0E943E0AC82FD0E0DC2F31
:10173000CC27CC27DF71D0623ACFC1152AE5D2077A
:1017400008F453C0CE0190568115904208F054CF52
:101750008D2F8F710E943E0A90E0982F882788274E
:101760009F719C012C2BE901E6CFC55AD0E0CC5DDE
:10177000DE4FC881D0E0D0641ACF2C2F2695269555
:10178000237040E2249F900111248C2F8370C1E0CC
:10179000D0E002C0CC0FDD1F8A95E2F7C22BD32B1D
:1017A000DD6805CFDC2FCC27C16FD06A00CFCE011A
:1017B0008370992721E030E002C0220F331F8A9501
:1017C000E2F7C695C69540E2C49FE0011124C22B02
:1017D000D32BDA68ECCEDC2FCC27C46FD06AE7CEEF
:1017E000DC2FCC27C06FD06AE2CE8C2F8F700E9486
:1017F0003E0A34E0D695C7953A95E1F7CF709C2F15
:10180000EC01D069D4CEC2EED0E0D1CEC0EED0E0B3
:10181000CECEC6EED0E0CBCEC5E3D0E0C8CE809130
:101820002D02882331F010922D0210922C0210927A
:101830002B020895CF93C82F8091E30482FF0CC040
:1018400080912D028C1741F00E94790690932C0212
:1018500080932B02C0932D02CF9108958095909193
:101860001705982390931705089580959091CE03BE
:1018700098239093CE0308959091CE03892B809363
:10188000CE03089510920A021092090210920802E3
:1018900008958091F1039091F203892B89F00E94C1
:1018A000790620912B0230912C02AC01421B530B84
:1018B00081E02091F1033091F2034217530708F4BD
:1018C00080E08170089590911B019923D1F090914F
:1018D000E20497FF16C0E82FE695E695E695EE310F
:1018E000E0F4F0E0E658FE4F282F277081E090E00A
:1018F00001C0880F2A95EAF7809592818923828317
:101900000895ECE7F1E09191891303C0DF0111978D
:101910001C9291E0E238F907B1F70895209107028F
:101920009091C601291302C080E0089530E0F901CA
:1019300053E0EE0FFF1F5A95E1F7E953FE4F518137
:10194000561306C05081581303C05281541304C06B
:101950002F5F3F4F2770E6CF81E008958091070207
:101960009091C601981301C008958F5F8770FACFD8
:10197000292F953078F58F3068F590E03FE0239F70
:10198000800D911D1124682F677023E0969587952F
:101990002A95E1F7FC01EE0FFF1FE80FF91FE05653
:1019A000FE4F50E040E080E0219130E0062E02C082
:1019B000369527950A94E2F721703327042E01C04B
:1019C000220F0A94EAF7822B4F5F5F4F4330510595
:1019D00059F7089580E00895292F953098F58F30B4
:1019E00088F590E03FE0239F800D911D1124282F62
:1019F000277041E001C0440F2A95EAF723E096954D
:101A000087952A95E1F7FC01EE0FFF1FE80FF91FFC
:101A1000E056FE4F30E020E070E05191DF01119779
:101A2000CB01022E02C0969587950A94E2F7817049
:101A300081958527842385278C932F5F3F4F233003
:101A4000310559F7089592959F70963091F058F4AA
:101A5000925F9F70923058F4803F19F030F4883EC6
:101A600030F481E008959A5FF4CF843FD1F380E0B1
:101A70000895883EB0F3813FD1F7F3CF9C013A95AA
:101A800021153F4150F5FC01EE27F170BC0166279E
:101A90007270AC01442754709C012227387094FF67
:101AA0000EC080E1EF2B09F480E0672B09F0806223
:101AB000452B09F08064232B89F08068089581E02C
:101AC000EF2B09F480E0672B09F08260452B09F0C9
:101AD0008460232B19F08860089580E00895809336
:101AE000E4047093E6046093E50480910C0584306F
:101AF000F9F48093E9008FEF9091E800815095FD13
:101B000006C095ED9A95F1F700008111F5CF80910F
:101B1000E80085FF0DC050E040E063E070E084EE37
:101B200094E00E9426058091E8008E778093E8007B
:101B30000895BC0184E00E946F0D0895BC0183E00C
:101B40000E946F0D08959C0184E08093E9009FEF4F
:101B50008091E800915085FD06C085ED8A95F1F7EA
:101B600000009111F5CF8091E80085FF0CC050E096
:101B700040E066E070E0C9010E9426058091E8001F
:101B80008E778093E8000895CF93DF93EC018091E6
:101B90001B018823B1F18091E20487FF32C060E22B
:101BA00084E08093E9008FEF9091E800815095FDEB
:101BB00006C095ED9A95F1F700008111F5CF80915F
:101BC000E80085FF1BC080911B0170E050E040E001
:101BD000811104C050E040E068E070E0CE010E9456
:101BE00026058091E8008E778093E80080E2FE0170
:101BF000AAEEB4E001900D928A95E1F7DF91CF91C2
:101C0000089568E081E0CDCF81E08093E00080E23C
:101C10008093D8001092C9008FE19EE40197F1F7FC
:101C200000C0000087E090EBDC01809318059093E2
:101C30001905A0931A05B0931B0588E19CE00FB627
:101C4000F894A895809360000FBE90936000FFCF3A
:101C5000019708F40895EFE9FFE03197F1F700C02C
:101C60000000F6CF0F931F93CF93DF930FEE13E097
:101C7000CFE7D2E0CE010E943635F80181938F0183
:101C80002196C33AF2E0DF07A9F7CCECD6E0FE01DB
:101C900085919491009711F0FC0109952C96F7E03D
:101CA000C83CDF07A1F7DF91CF911F910F910895F5
:101CB0000F931F93CF93DF93843030F5653020F579
:101CC0004F3010F5C42FD0E0CC0FDD1F2EE1629F06
:101CD000C00DD11D112436E9839FC00DD11D1124E3
:101CE000CE0187960E943635082F10E0102F00276E
:101CF000CE0188960E9436359801282BC901DF91C4
:101D0000CF911F910F91089590E080E0F8CF462F7A
:101D10002091CC033091CD03232B99F4703F39F4FB
:101D2000603F79F48091CA039091CB030895843089
:101D300040F4753030F46F3020F4672F0E94580E55
:101D4000089590E080E00895CF92DF92FF920F9384
:101D50001F93CF93DF936C010091160580912E02A3
:101D6000082BC7E0D0E010E0FC2EC8010C2E02C00A
:101D7000959587950A94E2F780FD0CC02197A0F70E
:101D8000F12C8F2DDF91CF911F910F91FF90DF905C
:101D9000CF900895B6018C2F0E94870E0E94810A71
:101DA000019761F3EECFCF93DF93EC010E94A40E75
:101DB000BE010E94870E0E94810ADF91CF91089593
:101DC000CF93DF93EC014B815C81698188810E9414
:101DD0006407811110C08E819F81009739F00E94A5
:101DE000810A0E94230DDF91CF9108958881998106
:101DF0000E94D30EF6CF80E0F6CFA5E0B0E0E3E09E
:101E0000FFE00C94D83449835A8389819A816623F0
:101E100099F0222389F00E94A40E182F682F89813F
:101E20009A810E94EC0C69817A81812F0E94870E31
:101E30002596E3E00C94F4340E94B80C182FF3CFED
:101E4000FC01262F86819781009739F440815181CA
:101E50006281738184810E94FD0E089583E290E087
:101E60000E943635853389F484E290E00E9436354D
:101E7000813F59F485E290E00E94363591E08B3D38
:101E800009F090E0892F8170089580E0FCCFCF9316
:101E900084E090E00E943635C82F82E290E00E94F4
:101EA0003635982F8C2FCF910895DB01FC013296A7
:101EB000259134914217530758F0FC0134966591EF
:101EC0007491A901CD010E94163590E080E008953B
:101ED0008FEF9FEF08950F931F93CF93DF930FEE34
:101EE00013E0CFE7D2E0CE010E943635F8016191D0
:101EF0008F01681719F0CE010E9444352196C33A2C
:101F0000F2E0DF0781F7DF91CF911F910F910895E4
:101F1000DA019C012E5F3F4FF90145915491F9017F
:101F200025913491A217B30758F0FC01349685919E
:101F300094910E9416350E946B0F90E080E0089506
:101F40008FEF9FEF0895CF93DF93C3E9D3E060E075
:101F5000CE010E9444352196C11584E0D807B9F717
:101F6000DF91CF9108951F93CF93DF93122F843089
:101F7000E0F46530D0F44F30C0F4C42FD0E0CC0F83
:101F8000DD1F9EE1699FC00DD11D112496E9899F37
:101F9000C00DD11D1124632FCE0187960E944435B8
:101FA000612FCE0188960E944435DF91CF911F9119
:101FB0000895CF93C82F6FEF811165E383E290E01E
:101FC0000E9444356FEFC11161EF84E290E00E94FE
:101FD00044356FEFC1116BED85E290E00E9444350E
:101FE000CF910895CF93C92F682F84E090E00E948D
:101FF00044356C2F82E290E00E944435CF910895E1
:102000009B01883070F49AE0899FB00111246D55CE
:102010007D4F4AE050E0C9010E94263590E080E003
:1020200008958FEF9FEF0895AAE0B0E0EAE1F0E1B4
:102030000C94D9349C0137552F3F310509F068F4D1
:10204000BE016F5F7F4F0E940010892B31F489859C
:102050009A852A96E2E00C94F534809107049091D9
:102060000804F7CFAAE0B0E0E8E3F0E10C94CF3445
:1020700002E513E080E4C82E83E0D82E93E4E92E35
:1020800093E0F92E27E0922E3FE3A32E33E0B32E08
:1020900088248394D6010D931D936D014AE050E08E
:1020A000B701CE0101960E942635F8013896DF016E
:1020B000892D1D928A95E9F789819A81D801119617
:1020C0009C938E938F8112968C9312978D81139689
:1020D0008C931397888514968C93149789851596FD
:1020E0008C9315978B819C8117969C938E93169752
:1020F00018961C9218978A8587FF3CC01E961C92E2
:102100001E921D9780FF03C0D80118968C9281FF04
:1021100004C0F80190859260908782FF07C0D801C3
:1021200018969C911897946018969C9383FF04C00E
:10213000F80190859860908784FF07C0D8011896B1
:102140009C911897906118969C9385FF04C0F801A4
:10215000808580628087015F1F4FFAE0EF0EF11CDF
:1021600083E9E81683E0F80609F094CF2A96ECE0BC
:102170000C94EB34F801B686A586C4CFAAE0B0E093
:10218000E4ECF0E10C94D334EFEEF2E080E5DF0113
:102190001D928A95E9F7EBE7F4E088E3DF011D92F1
:1021A0008A95E9F78FEEC82E82E0D82E7F0103EFE3
:1021B00012E0F701D182C0824AE050E0B801CE01BE
:1021C00001960E94263588E0FE013196D6010190E5
:1021D0000D928A95E1F789859A85D70113969C938C
:1021E0008E931297BAE0CB0ED11CE7E0EE0EF11CF5
:1021F000065F1F4F0334F3E01F07D9F62A96E8E085
:102200000C94EF34AAE0B0E0E8E0F1E10C94CF34B4
:102210008E010F5F1F4F8AE0F80111928A95E9F74E
:1022200095E5E92E91E0F92E6801AA24A394B12C3A
:10223000F70181917F018F3F09F446C0F894E82FA0
:10224000E295EF70F0E021A18F70A50102C0440F6C
:10225000551F8A95E2F7CA01922F982B91A392A15C
:102260008095892382A3789400C0EAE5F1E021E01B
:1022700030E0912C812C41914F3F09F467C0A42F8D
:10228000A295AF70B0E090968C9190E04F7002C034
:10229000959587954A95E2F780FD58C0C901882A2F
:1022A000992A220F331F51E0E936F50721F7F7018C
:1022B000319780818F3F11F00E94270A80EA8A952A
:1022C000F1F7F60191828082F2E0CF0ED11C4AE54F
:1022D000E41641E0F40609F0ABCF4AE050E0B80163
:1022E00082E392E00E940935892B99F18AE0F80196
:1022F000A2E3B2E001900D928A95E1F781E080932C
:1023000031020E9479069093300280932F028091CF
:102310002F02909130020E945E060597F0F04AE08D
:1023200050E062E372E086E592E00E940935892B75
:10233000C9F08AE0E2E3F2E0A6E5B2E001900D9296
:102340008A95E1F781E01092310208C090E080E0C8
:10235000A6CF809131028111DACF80E02A96ECE09D
:102360000C94EB3480E0EFCFCF938091CE0390912B
:102370001705892B80937A0180912D02882329F1FA
:102380008091F1039091F203892B29F00E94490C6E
:1023900081110E940F0C80917A0190912D02892B5E
:1023A00080937A0180911B01882309F447C08091B2
:1023B000E20487FF43C08EE1ECE7F1E090E081505A
:1023C00008F03EC091110E940F0CC091CB04C09543
:1023D00080917A01C8238091CC04C82BC0937A01E4
:1023E00040E250E06BE072E08AE791E00E9409353C
:1023F000892B11F180E2EAE7F1E0ABE0B2E0019075
:102400000D928A95E1F7E091D904F091DA043097C2
:1024100099F080911B01882349F08091E20487FFA5
:1024200005C0C0937B0186E080937A010280F3812E
:10243000E02D8AE791E00995CF91089586E0BCCF21
:102440002191222309F4BBCF9F5FB9CFCF93DF93B4
:10245000EC01EA85FB85309719F06C857D8509953F
:102460008B810E942E0C8C810E94350C0E94B4112D
:1024700086E0FE0111928A95E9F7DF91CF910895E8
:10248000CF93DF93EC018D8181FD15C082608D8338
:10249000809117059B81892B809317058C810E9461
:1024A0003C0C0E94B411E885F985309721F06C85C9
:1024B0007D85CE0109951092D6041092D5048D81A8
:1024C00080FD03C0CE010E942612DF91CF910895B6
:1024D00080911901877F8093190182E00E942E0C60
:1024E0008091190184FF06C08F7E8093190182E0DC
:1024F0000E943C0C8091190185FF06C08F7D80935E
:10250000190180E20E943C0C0E94B411089590E0F1
:1025100080E00E94D00690E080E00E94BA0610920F
:1025200017050E94B41186E0E7E6F2E0DF011D9294
:102530008A95E9F71092610210926002109262028D
:102540000E947B080895809316050E9487120895C3
:1025500080911605982F9670963021F488600E941D
:10256000A3120895877FFBCF21E030E001C0220F46
:102570008A95EAF720958091160582230E94A3127E
:10258000089590910A028095892380930A02282F4A
:10259000277091F4282F082E000C330B9217130686
:1025A00059F09091E30492FF07C085958595859534
:1025B0000E94B4120E94420C08959091E30492FB91
:1025C000222720F9281769F080FB92F99093E30401
:1025D0008091E2049091E3040E94F20F82E00E9455
:1025E000C112089521E030E001C0220F8A95EAF778
:1025F00080911605822B0E94A31208959091E30406
:1026000092FF10C098E0899F90011124622B609383
:102610000A020E94F2120E947906909309028093A6
:10262000080208950E94F212089580932E020E94DB
:10263000871208951092CE0380911B01ECE7F1E020
:10264000882361F08091E20487FF08C08EE1DF01FA
:102650001D928A95E9F70E948712089586E0F7CFC8
:10266000AAE2B0E0E6E3F3E10C94D8348EE095E022
:102670002091F100DC012D93CD01B5E086319B075F
:10268000B9F780910F05833009F472C0B8F4813036
:1026900009F449C0823009F4B3C08091E80083FF97
:1026A00096C280910E0590910F059A3008F08FC266
:1026B000E92FF0E0EE57FA4C0C94BC348A3009F460
:1026C0008EC08B3009F471C0893039F780910E05C6
:1026D000813219F78091120590911305009711F03E
:1026E0000297D9F68091E800877F8093E800809177
:1026F000E80082FF38C09091F3008091F2000297C9
:1027000031F48091F100813011F0863021F4809114
:10271000F1008093E9048091E8008B778093E800D2
:102720000E945005BACF80910E05813A09F0B5CFCD
:102730008091E800877F8093E80080911205909156
:102740001305892B61F460E28AEE94E070E00E9448
:10275000FC058091E8008B778093E8009ECF60E0D5
:1027600090E080E0F3CF80910C058111C0CF95CF30
:1027700080910E05813A09F090CF809112059091D9
:102780001305892B09F089CF8091E800877F80931A
:10279000E8008091E80080FFFCCF80911B018093CE
:1027A000F1008091E8008E77B9CF80910E058132DB
:1027B00009F073CF8091120590911305892B09F0D0
:1027C0006CCF8091E800877F8093E8000E945005DD
:1027D0008091100580931B010E941A135ECF809197
:1027E0000E05813209F059CF8091E800877F8093F0
:1027F000E8000E945005809111058093E8044DCFB8
:1028000080910E05813A09F048CF8091E800877FDA
:102810008093E8008091E80080FFFCCF8091E8047D
:10282000BECF803899F0823809F0D1C1809112056D
:102830008F70873008F0CBC18093E9008091EB0066
:1028400085FB882780F91092E90006C080910A056F
:1028500090910B05911182609091E800977F909381
:10286000E8008093F1001092F1008091E8008E77EB
:10287000AAC1882309F498C1823009F0A8C18091C7
:10288000100581119BC1809112058F702FEF280FC9
:10289000263008F09CC18093E9002091EB0020FFD6
:1028A0008DC1933031F48091EB0080628093EB0016
:1028B00085C19091EB0090619093EB0021E030E0B6
:1028C00001C0220F8A95EAF72093EA001092EA00ED
:1028D0008091EB008860EACF811179C110911005D9
:1028E0001F778091E3008078812B8093E3008091B3
:1028F000E800877F8093E8000E9450058091E800FF
:1029000080FFFCCF8091E30080688093E30082E049
:10291000111183E080930C055AC18058823008F071
:1029200056C120911005309111052C3DE3E03E0782
:10293000A1F583E08A838AE289834FB7F894DE01A8
:10294000139620E03EE051E2E32FF0E05093570071
:10295000E49120FF03C0E295EF703F5FEF708E2F90
:1029600090E0EA30C0F0C7968D939D932F5F24319D
:1029700059F74FBF8091E800877F8093E8006AE2B3
:1029800070E0CE0101960E94FC058091E8008B77F3
:102990008093E8001CC1C096E7CF8091120590910A
:1029A0001305432F55274330510509F44AC078F5E4
:1029B0004130510509F485C08BE590E0EEEBF7E07E
:1029C0004230510509F003C12091E800277F209390
:1029D000E80020911405309115058217930708F43B
:1029E0009C0140E02115310509F070C041116EC015
:1029F0008091E80082FDC9CF80910C05882329F2DF
:102A0000853019F28091E80083FFF2CFBECF4132CA
:102A1000510509F447C04232510509F0D8C083304E
:102A2000910508F0D4C0FC01EE0FFF1FE459FE4FE2
:102A30000190F081E02D87599E4FDC018C9190E050
:102A40001DC0332721303105E9F02115310579F01A
:102A500022303105F9F02330310509F0B8C0EBE23E
:102A6000F8E0E4918E2F90E0EBE2F8E007C0E3E8B5
:102A7000F8E0E4918E2F90E0E3E8F8E0009709F4A5
:102A8000A6C0A2CFE7E6F8E0E4918E2F90E0E7E65B
:102A9000F8E0F4CFE9E4F8E0E4918E2F90E0E9E487
:102AA000F8E0ECCF8330910508F091C0880F991FB2
:102AB000FC01EE58FE4F0190F081E02D89E090E09E
:102AC00083CF82E190E0E9E1F8E07ECF80910C05D0
:102AD000882309F45ACF853009F457CF8091E80054
:102AE00083FD53CF8091E80082FD82CF8091E80082
:102AF00080FF78CF9091F3008091F200211531058D
:102B000019F08830910550F041E0089709F040E055
:102B10008091E8008E778093E80064CF44914093E1
:102B2000F1003196215031090196E8CF803809F043
:102B30004EC08091E800877F8093E80080910D056A
:102B40008093F10092CE811142C010911005123095
:102B5000F0F58091E800877F8093E80010930D05E1
:102B60000E945005112311F084E005C08091E3001C
:102B700087FDFACF81E080930C0542E061EC81E0B3
:102B80000E946F0542E261EC84E00E946F0542E220
:102B900061EC82E00E946F0542E260EC83E00E94FB
:102BA0006F0580910C0513C080911005813079F478
:102BB00081E0933009F080E080930B051092E900EA
:102BC0008091E800877F8093E8000E945005809103
:102BD000E80083FF0AC08091E800877F8093E800C7
:102BE0008091EB0080628093EB00AA96E3E00C9466
:102BF000F434EFEEF3E0128E138E8FEA90E09183BF
:102C0000808325E0248F88E893E1938382838AE0A0
:102C100090E09583848344E150E05783468348E005
:102C200050E051874087938782876EE170E0758717
:102C300064879787868780E590E0918B808B538BA4
:102C4000428B48E250E0558B448B42E350E0578B77
:102C5000468B48EC50E0518F408F158E178E168EA4
:102C600091A380A322A30E946B0F0E941A131092BB
:102C7000E3041092E204E3EEF4E080818460808358
:102C80008091E2049091E3040E94F20F0E94320EC0
:102C90000895AEE1B0E0EFE4F6E10C94CE34A090FC
:102CA0000D01B0900E0181E090E090930E018093B1
:102CB0000D018AE6C82E84E0D82E00E0760110E0EF
:102CC00015C0F40125913491472D612F802F0E946A
:102CD000B30F82E0880E911C7394EFE07E12F1CF67
:102CE000FEE1EF0EF11C1F5F153019F04701712C4A
:102CF000E8CF0F5F86E9C80ED11C0430F9F60E94B8
:102D0000F9151A8219821C821B821E821D82188666
:102D10001F8288EC90E09A87898703EA12E04AE0F4
:102D200050E0B801CE0101960E946835065F1F4F42
:102D3000033FE2E01E0799F77E01FBE0EF0EF11C76
:102D40008AE0F70111928A95E9F74AE050E0B8016C
:102D5000C7010E946835065F1F4F0334F3E01F0769
:102D6000A1F77E0185E1E80EF11C8AE0F7011192DE
:102D70008A95E9F78FEF9FEF9A8F898F87E08E8F83
:102D80004AE050E0B801C7010E946835065F1F4F56
:102D90000339F3E01F07A1F7B0920E01A0920D01D5
:102DA0006E96EDE00C94EA3480E00E94D90F60E06A
:102DB00086E290E00E9444350E9449160E94A30FCB
:102DC00081E00E94D90F0895CF92DF92EF92FF9297
:102DD0008FEF9FEF4430510508F46AC0FB01C080BB
:102DE000D180E280F3800E941A138091E204C0FA3D
:102DF00080F9B701A601769567955795479540FBF1
:102E000081F9B701A60122E0769567955795479518
:102E10002A95D1F740FB82F9B701A60133E07695F8
:102E20006795579547953A95D1F740FB83F9B701D8
:102E3000A601E4E07695679557954795EA95D1F711
:102E400040FB84F9B701A601F5E0769567955795A3
:102E50004795FA95D1F740FB85F9B701A601A6E0A1
:102E60007695679557954795AA95D1F740FB86F9D2
:102E7000B701A601B7E07695679557954795BA953E
:102E8000D1F740FB87F98093E2048091E304D0FA04
:102E900080F9D1FACC24C0F8C0FA81F98093E30418
:102EA0008091E2049091E3040E94F20F90E080E0B0
:102EB000FF90EF90DF90CF9008950E941A132FEFAC
:102EC00084E39CE0215080409040E1F700C0000086
:102ED00088E19CE00FB6F894A895809360000FBE3F
:102EE00090936000FFCF882321F00E942E0C0E9457
:102EF000B4110895882339F090911705982B909379
:102F000017050E94B4110895882321F00E94350C02
:102F10000E94B4110895882321F00E943C0C0E9465
:102F2000B4110895882379F19CEF980F913A28F411
:102F30000E94630C0E94B411089590E2980F98309B
:102F400050F4877091E001C0990F8A95EAF7892FB4
:102F50000E94350CEFCF9BE5980F933028F490E05A
:102F600080E00E94D006089598E5980F973128F4E4
:102F700090E080E00E94BA060895803F20F00E9411
:102F8000A2080E947B080895FF920F931F93CF938E
:102F9000DF93F82E0091D0041091D1040115110592
:102FA00009F449C01092CF041092CE041092CB04C1
:102FB0001092CC04D8011696CD91DC919E013A95E1
:102FC00021153F4108F4D07ED1E0C11101C0D0E00D
:102FD000D8011996ED91FC911A97309731F01B9614
:102FE0006D917C9180E00995D823DD2339F08CEF39
:102FF0008C0F813A30F58C2F0E94630CFF2099F0E2
:10300000E091D004F091D104808584FD0CC08091C2
:10301000CD04882341F0808191819C0121503109A8
:10302000203B3D45A0F00E94B4111092D1041092B3
:10303000D0041092CD04C801CDB7DEB7E5E00C9402
:10304000F2340E94B4118C2F0E949217D7CF0E94A5
:10305000F306E9CFCF93DF93EC010E949217CE01E4
:103060000E943E0D9E01205E31092830310510F08E
:10307000CD2B29F40E948417DF91CF9108950E94EF
:103080007317FACFCF93C82F8823C1F18CEF8C0F21
:10309000813AB0F580911B01882301F18091E2040F
:1030A00087FF1CC0EC2FE695E695E695F0E0E65824
:1030B000FE4F828190E04C2F477021E030E002C04B
:1030C000220F331F4A95E2F782239323892B79F04D
:1030D0008C2F0E94630C0E94B41109C0ECE7F1E050
:1030E0008191C817A9F381E0E238F807C9F76C2F7E
:1030F0008AE791E00E9485060E94B411CF9108955D
:1031000080E28C0F883048F4C77081E001C0880FDE
:10311000CA95EAF70E943C0CEFCFEBE5EC0FE330E9
:1031200040F4F0E0EC5DFE4F808190E00E94D0061C
:10313000E5CFE8E5EC0FE73150F4F0E0EE0FFF1FCC
:10314000E95DFE4F808191810E94BA06D7CFC03FD2
:10315000A8F28C2F0E94BD090E947B08CFCF1F933D
:10316000CF93DF93182FC0910F04D09110048933AF
:1031700021F0C0910D04D0910E04812F0E944218BD
:10318000209739F4812F0E949217DF91CF911F91E0
:1031900008958FE99FE00197F1F700C000002197A3
:1031A000EFCFB0E0A0E0E7EDF8E10C94D134EC0112
:1031B0008AE0A82E2881222309F48FC02130C9F586
:1031C00099818A81913021F422960E94AF1805C01E
:1031D000923029F422960E9442182196EBCF933028
:1031E00021F422960E949217F8CF943011F0219684
:1031F000F4CF229630E020E0AE014F5F5F4F805366
:10320000990B8A30910550F02150310930F38FE944
:103210009FE00197F1F700C00000F6CFA29EB00139
:10322000A39E700D11249C01260F371F8981EA018E
:10323000E3CFE22FF0E0E954F74FB490822F869568
:103240008695869590E0FC01E955F74FE49027704C
:10325000F12C022E02C0F594E7940A94E2F731E0D3
:10326000E322FF24FC01E956F74FC490D12C022E33
:1032700002C0D594C7940A94E2F731E0C322DD245A
:10328000FC01E957F74F049110E002C0159507952E
:103290002A95E2F701701127E114F10419F081EE8B
:1032A0000E944218C114D10419F086EE0E944218FF
:1032B0008B2D0E94AF18C114D10419F086EE0E9424
:1032C0009217E114F10419F081EE0E949217011592
:1032D000110509F482CF8CE278CFCDB7DEB7EAE0F2
:1032E0000C94ED34B0E0A0E0E8E7F9E10C94D134BF
:1032F0007C015B01C42FD22FFC0182818823A9F0BD
:103300004093D4040E9479069093D3048093D2040E
:10331000C77081E001C0880FCA95EAF70E948B1739
:10332000CDB7DEB7EAE00C94ED341091D404141359
:1033300038C08091D2049091D3040E945E066C0143
:10334000B701C5010E941410C816D90650F5C0E295
:10335000CD0F1D17C1F080E2810F883048F417703F
:1033600081E0012E01C0880F0A94EAF70E948417B9
:10337000C83048F481E09D2F977001C0880F9A955E
:10338000EAF70E948B17802F0E94AF18C83040F6D2
:10339000D77081E001C0880FDA95EAF70E948417A0
:1033A000BFCFC77081E001C0880FCA95EAF7F6CF9A
:1033B000CF93DF93EC010E943E0D9E01205E310908
:1033C0002830310510F0209741F40E948B178C2F84
:1033D0000E944218DF91CF9108950E947A17F7CF8B
:1033E000662329F0209117052260209317059C0180
:1033F0003056211540E2340720F0305E211530416F
:1034000008F499270E94D8190895B0E0A0E0EBE0F5
:10341000FAE10C94D4347C018B01D42E80911901F3
:1034200082FF8CC0C0911504D0911604CE15DF0523
:1034300021F0E114F10409F081C0809119018B7F22
:103440008093190181FD73C080911304909114043D
:10345000A801481B590B81E02091170130911801F8
:103460004217530708F480E08170F82E809119010B
:10347000F0FA81F980931901FE0183E0F695E79552
:103480008A95E1F7EE71FF27E153FC4F20813181EE
:10349000AE014F70552781E090E002C0880F991F60
:1034A0004A95E2F7FF2009F444C0822B932B9183C5
:1034B00080838091CE0381FF08C0809119018061D3
:1034C0008093190182E00E94350C8091CE0385FF24
:1034D00008C08091190180628093190180E20E94E6
:1034E000350C6F2DCE010E94F019DD2031F0809156
:1034F0000A0485FF02C086FF3BC080910D049091B5
:103500000E040E94280E80911504909116049C01CF
:103510003056211540E2340720F0305E211530414D
:1035200008F499270E942A180E9468121DC081E0A1
:103530009BCF8095909582239323B9CFC70199277C
:1035400097013056211540E2340728F0305E2115EE
:10355000304108F0C7010E942A188091150490910B
:1035600016048E159F0501F31093140400931304A1
:10357000CDB7DEB7E7E00C94F03468EE7EEF90E074
:1035800080E00E94623560E082E090E00E94443575
:1035900060E083E090E00E94443510922E0260E0EB
:1035A00084E090E00E94443564E082E290E00E9472
:1035B000443560E085E090E00E94443560E086E0BC
:1035C00090E00E9444356FEF87E090E00E94443520
:1035D00040E050E0BA0188E090E00E94563560E09B
:1035E0008DE090E00E94443540E050E0BA0188E16F
:1035F00090E00E94563560E087E190E00E944435FB
:1036000040E050E0BA018CE190E00E94563570E055
:1036100060E080E290E00E94623540E050E0BA0154
:1036200088E190E00E94563580E00E94D90F0E9408
:10363000D41640E050E0BA018FE090E00E94563589
:1036400040E050E0BA0183E190E00E9456350895D1
:10365000A7E0B0E0EEE2FBE10C94C9347C01DC01B0
:1036600013964D915C91149711966C9111978C91D2
:103670000E9464078111EEC061E0C7010E94200F23
:103680008C01F70182818823E1F08091D50490912B
:10369000D6040097B1F00817190799F0FEE08F9F44
:1036A000C0011124FC01EC57FD4F208124602083D0
:1036B00081589D4FDC010D931C930E944012109283
:1036C0001705F7018281882311F40C94E823C801BF
:1036D00082519F45409710F00C94DC238FEF93E0CC
:1036E0000E9436358111A6C07EEED72ED00E03E99A
:1036F00013E0D11036C019821A821B821C829924D1
:103700009A9468012FEFC21AD20AC8010E94363576
:1037100089831A82882309F48DC0813009F07FC023
:10372000580132E0A30EB11CC6010E943635C82EE6
:103730008A83882309F47EC0C5010E943635D82EBD
:103740008FEF8C0D8330D8F4580143E0A40EB11CE8
:10375000DB82DD2021F0CE0101960E94D118850187
:10376000D0CF0115F4E01F0709F464C0C8010E941E
:103770003635811101C0DA940F5F1F4FBACF8BEF3E
:103780008C0D833030F5C8010396DB825C01DD20AF
:1037900031F3580154E0A50EB11C0E9436358C83DC
:1037A0008823E9F28B819C818130AFEF9A0710F07A
:1037B000982F8827B6E0CB1631F0E7E0CE1631F02F
:1037C0000E94572BCCCF0E94312BC9CF0E94B82A20
:1037D000C6CFF4E0CF12C3CF580124E0A20EB11C33
:1037E000C80103960E943635DD2021F1882311F1AE
:1037F0008150990B989E9001999E300D11244D2D6A
:103800004150550BCA01820F931F019708F4A7CFAF
:10381000AFE9BFE01197F1F700C00000F6CFCE018D
:1038200001960E94D11856019ACF81E00E94F212AF
:103830000E94A81280910A02877061F0D701129647
:103840008C91882339F08091E30482FF03C082E0E9
:103850000E94C1122796E2E10C94E53481E00E94B7
:10386000B412E6CF82E0FBCF823011F00C94262414
:103870008091790290917A02892B09F4E7C72EE0B2
:103880002C9DC0012D9D900D1124FC01EC57FD4F86
:1038900020812E7F208381589D4F0E944012D6C7E1
:1038A00081E080930001C6CF80910001882309F454
:1038B000AFC6480120EE821A910840902D028091F7
:1038C0009D01482A8091CE03482A38E0831691044E
:1038D00008F086C098012770332781E090E001C08E
:1038E000880F2A95EAF7552009F477C0482AD701AE
:1038F0008D919C910E94B80C21E030E0F90102C04A
:10390000EE0FFF1F8A95E2F7FF83EE832090D0042D
:103910003090D10460909A0170909B011D822D819E
:10392000E22FF0E0EE0FFF1FE05CFC4FC080D18083
:10393000C114D10409F4D0C6411005C0D6011296B5
:103940008C91811189C0F601838190E02E813F81A5
:1039500082239323892B09F47FC08085982F977049
:1039600009F487E038E08316910408F053C055202D
:1039700009F44CC086958170882309F46DC0D60186
:10398000AD90BC900A151B0519F4552009F464C0CC
:10399000C214D30409F460C0D6011D96ED91FC91C8
:1039A000309721F08081882309F456C0642DC60128
:1039B0000E944407882309F44FC00A151B0509F02B
:1039C00099C70115110509F49AC751109AC7A61491
:1039D000B70409F041C0512C94C78095482287CF85
:1039E000552009F462C610939B0100939A010E942E
:1039F0006D066093C7047093C8048093C9049093C4
:103A0000CA041092CF041092CE0471CF82FB882793
:103A100080F9B2CF552001F18170AECF0E9492178C
:103A20008EC70497813A910558F46A2D8AE791E090
:103A30000E948506552009F4EBC50E94B411FACE08
:103A40000E94B4118FE39CE90197F1F700C00000D8
:103A50008A2D0E944218EECF9D819F5F9D835FCF8C
:103A6000FC01208131810217130709F0CAC55110EA
:103A7000CAC51092CD0480E00E94C417C9C5902F1A
:103A8000812F0EC6F901858181FF3AC6C9010E94C6
:103A9000261236C6809119018160809319015EC695
:103AA000809119018E7F809319010E94681256C679
:103AB000809119018F7E013E110531F0053E1105FF
:103AC000C9F4809119018F7D8093190180911901AA
:103AD00080FF53C6D70112968C910832110528F544
:103AE0000E31110508F072C00430110580F5811106
:103AF00040C643C6C8019056811540E2940720F0A5
:103B0000905E8115904110F78091190182FF35C6B2
:103B100080910C0481FD31C62BE432E040E0B60117
:103B200090E080E00E94051A28C60933110558F478
:103B30000D32110518F40B321105C9F690910A04E3
:103B400092FDD5CF08C004361105C1F3D0CF9091B6
:103B50000A0494FDCCCF882309F4A8C080912D02DB
:103B60009091CE03892B8D7FB1F1109216041092A3
:103B7000150480910A0481FD2EC0F80143E0F695FA
:103B8000E7954A95E1F7EE71FF27E153FC4F980165
:103B90002F70332781E090E002C0880F991F2A958B
:103BA000E2F7809590952081318182239323918340
:103BB000808360E0C8010E94F01980912D028D7F02
:103BC0000E941A0C82E00E94C11234CE90910A0425
:103BD00093FD8DCFC0CF88E0F701ABE4B2E0019058
:103BE0000D928A95E1F710924D0210924F021092B9
:103BF0004E02809115049091160408171907D1F50B
:103C000020910A0425FF36C03091190131FF02C00E
:103C100026FF30C020911304309114045601A21ADB
:103C2000B30AB7010E941410A816B90618F58091BE
:103C3000CE0381FF08C08091190180618093190132
:103C400082E00E94350C8091CE0385FF08C08091F0
:103C5000190180628093190180E20E94350C609105
:103C600019016695617080911504909116040E9467
:103C7000F019E0CD80912D029091CE03982B2091E8
:103C8000190191FB21F9209319018D7F0E941A0CD3
:103C90001093160400931504D0921404C0921304D8
:103CA000809119018460809319018CCF970140E0C5
:103CB000B601C8010E94051ABDCD053F4CE51407A9
:103CC00009F463C008F45BC0063F8CE5180709F4EB
:103CD00062C0D70112963C91332309F4D8C51092E3
:103CE000D4040330BDE51B0708F061C00A3FECE5D2
:103CF0001E0730F4C80182509C45449708F063C009
:103D00000E94470F9093E3048093E20402315CE544
:103D1000150709F49EC108F0EEC009309CE51907AB
:103D200009F475C108F0B8C00530BCE51B0709F4FB
:103D300062C108F09FC00330FCE51F0709F453C1BE
:103D400008F055C18091E204816002303CE5130720
:103D500009F4CEC08091E2049091E3040E94F20F36
:103D60000E941A1367CD07E225EE45EE68ED7CE56B
:103D70001FC506E221EE40EE63EF7CE519C507E2C0
:103D800025EE44EE64EF7CE513C506E221EE42EE3B
:103D900065EF7CE50DC507E225EE46EE66EF7CE5B6
:103DA00007C508E221E045EE69ED7CE501C5053A6D
:103DB000FDE51F0709F4A4CF08F055C001364DE515
:103DC000140709F49DCF06318CE5180709F464C582
:103DD0000A355DE5150709F495C108F06EC10115B6
:103DE0009CE5190709F474C10E3D1C4509F47DC119
:103DF000F70186819781009709F488C10E94810AA2
:103E0000182F092FF701D280C580C2943FE0C3224A
:103E100080910A028770C1F0AD2CDD20B1F0892FAE
:103E2000807F803421F080E2810F883068F08091BB
:103E3000E30482FF09C082E00E94C11280910A025D
:103E40008770AA24A3948111A12C902E92942FE024
:103E50009222FBE0F91508F4E6C1E92DF0E0E45701
:103E6000FA4C0C94BC34C8018D5A9D45039708F058
:103E7000AACF46CF8091E204806207304CE5140758
:103E8000B9F18091E204806108305CE5150780F1AA
:103E90008091E20480642CC00D308CE5180709F491
:103EA000C0C090F48091E2048E7F0B30ACE51A071D
:103EB000F9F08091E2048C600C30BCE51B07C0F087
:103EC0008091E2048D7F14C00F30ECE51E0709F4E9
:103ED000B8C008F4AAC000312CE5120709F4B5C037
:103EE0008091E2048F7B01313CE5130709F032CF6A
:103EF0008093E2042FCF0F3F4CE5140709F4B3C0C1
:103F0000A8F50A3F8CE5180709F479C0C0F404311C
:103F1000ACE51A0709F4B5C008F4A1C00531ECE519
:103F20001E0709F017CF8091E20482FB992790F9D0
:103F300021E0922790FB82F990FB83F9D9CF0C3FC7
:103F4000FCE51F0709F475C008F45DC00D3F3CE5B2
:103F5000130709F472C08091E30483600E3F4CE5BF
:103F6000140709F0F7CE8093E304F4CE01365DE543
:103F7000150709F491C090F401309DE5190709F483
:103F800089C008F474C060E00230BDE51B0709F089
:103F9000E1CE8EE090E00E944435DCCE0D3AEDE5B6
:103FA0001E07E9F060F49091E204892F8E7F90FF64
:103FB0008160053A2DE5120709F49ACFCBCE0E3A6F
:103FC0003DE5130751F10F3A4DE5140709F0C2CE54
:103FD0009091E304892F877F93FF8860C4CF8091FD
:103FE000E3048860C0CF8091E204826081CF809139
:103FF000E20484607DCF8091E204886079CF809173
:10400000E3048160B0CF8091E3048260ACCF0E9472
:104010001A138091E20480686BCF8091E304877F5C
:10402000A2CF8091E2048B7F63CF8091E204877FEF
:104030005FCF8091E3048E7F96CF8091E3048D7FE4
:1040400092CF8091E2048F7E53CF8091E2048F7DE6
:104050004FCF0E941A138091E2048F7749CF80914D
:10406000E204837F45CF8091E3048C7F7CCF8091F5
:10407000E304982F909591708E7F892B90FB81F9A6
:1040800072CF0E941A139091E204892F97FB87F94F
:1040900080582ECF61E07DCF9091E204892F8F7EF2
:1040A00094FF806125CF80919C01811104C089E239
:1040B0000E94630CC2CC85E3FBCF0C35BDE51B072A
:1040C000B9F010F1073A1D4509F092CE0E945D1734
:1040D0000E941A132FEF34E34CE02150304040404F
:1040E000E1F700C000000E94040E0E94BD1AEECF4E
:1040F0008091E30482FB882780F991E089270E9460
:10410000DD1276CE81E0FBCF80E0F9CF82810081A5
:104110001181882369F0C8010E94A40ED82E682F4F
:10412000C8010E94EC0CB8018D2D0E94870E66CE4E
:10413000C8010E94B80CD82EF6CF202F2F70B22EB7
:10414000802F807F19F0B29490EFB922DD20A9F082
:10415000BB2059F080E2810F883010F0111107C0A8
:104160008B2D0E943C0C0E94B411812F5AC080916B
:104170001705B82AB0921705F6CF812F0E94921723
:10418000BB2009F450C080E2810F883010F011117B
:1041900004C08B2D0E94350C03C08B2D0E942E0C69
:1041A0000E94B41140C0302F3F70B32E802F807F0B
:1041B000803219F0B29480EFB822112321F111302E
:1041C00009F4AEC0DD2009F4B7C0CC2009F47FC0EB
:1041D00020E0D7014C9111965C91119712966C9149
:1041E000129713967C91139714968C910E94FD0E52
:1041F00080910C0481FDB9CFF701858180FFB5CF97
:104200008F70858364C08091E30482FD40C0DD200F
:10421000C1F1BB2029F08B2D0E943C0C0E94B411EF
:1042200080E00E944218A92DA850BB0B149710F4EF
:104230000E94E606812F902F0E94230D8111C2C19A
:1042400010929F0110929E01AA20B1F080910A0263
:1042500080FD12C0D70112961C9285958595859593
:104260000E94F212C7010E94281B80910A028595C4
:10427000859585950E94B41260E0C7010E94200FC9
:10428000E9CA80E00E949217BB2069F282CFDD204C
:1042900011F1C11004C080912D028B2919C041E099
:1042A000C41206C080912D028B290E941A0CBBCF2C
:1042B00080910B04823078F3C812EDCF0E940F0C6E
:1042C00090919D018B2D892B891380939D018B2DBE
:1042D0000E948B17A8CFC11003C00E940F0C17C0FB
:1042E00080910B0451E0C51216C0823008F49BCFB8
:1042F0008091CE038B2109F496CF0E940F0C9091F0
:104300009D018B2D80958923891380939D018B2D91
:104310000E94841788CF823000F3C812DECF83CF8B
:1043200080911104DD2021F08C1508F47CCFCFCFD3
:10433000C81608F078CFEBCFCC2049F380910F045A
:1043400090911004193321F080910D0490910E0486
:104350000E94280E812F0E94921765CF802F86958C
:104360008695837069F0813009F05DCF812F902FA1
:104370009370D11002C090E080E00E94BA0653CF43
:10438000812F902F9370D11002C090E080E00E94A6
:10439000D00649CF812FDD2029F00E94BD090E945F
:1043A0007B0841CF0E94A208FACF802F837091F53D
:1043B000D11039CF412F429546954770440F440F95
:1043C000812F8F70042E01C0880F0A94EAF7212FE5
:1043D000207114FF07C02FE030E001C0220F4A9582
:1043E000EAF72095302F369536953370323069F0E4
:1043F00050F440912E02313029F0822B84230E9408
:10440000151311CF842B822BFACF282B80912E02EB
:104410008227F5CF8695DD2011F0802F81708823CB
:1044200009F401CF412F429546954770440F440F40
:10443000812F8F70042E01C0880F0A94EAF7212F74
:10444000207114FF07C02FE030E001C0220F4A9511
:10445000EAF72095302F369536953370323069F073
:1044600050F440911605313029F0822B84230E94AC
:10447000A312D9CE842B822BFACF282B809116053C
:104480008227F5CFF02FFF70BF2EDD2029F08F2F70
:104490000E94F212812F1CCF812F0E9484178B2D36
:1044A0000E94B412C0CE123F89F160F4103FB9F0FF
:1044B000113F81F0DD2009F480C0C11056CE802F5D
:1044C0008F7128C0133F49F1143FA1F78091E30495
:1044D00082FD2FC0802F8F71DD2011F31BC08091D2
:1044E0001104DD2079F0C81608F09DCE202F2F7121
:1044F00081E090E001C0880F2A95EAF790911605B7
:104500008927B5CF8C1508F48ECEF0CF802F8F7110
:10451000D110C6CF0E94F21286CE80E0DD2009F4D1
:10452000A6CF81E0902F9F7101C0880F9A95EAF77E
:104530009ECF80910B04823040F1DD20D1F090912C
:104540000A029770943041F40E94420C802F8F71C0
:104550000E94B412A12C67CEC816E0F7202F2F714D
:10456000B22E822F0E94F21263E08B2D0E94FE1267
:10457000F1CFC81630F00E94420C64E0802F8F719A
:10458000F5CF81E00E94C112E5CFDD2059F0302F38
:104590003F71B32E832F0E94F21263E08B2D0E9495
:1045A000FE1241CE81E00E94C11241E04C1508F09C
:1045B0003ACE82E00E94C11236CEC110BFCE802F0B
:1045C0008F716ECFDD2019F0C1103ACE3DCEC110F3
:1045D00037CE20E0F701408151816281738184816F
:1045E0000E94FD0E80910C0483FF2ACE80919E01D3
:1045F00090919F01029709F023CE812F0E94AF185E
:104600001FCE552029F0DC0118968C9185FF33CA06
:10461000C80197558F3F910511F008F071C05801FE
:10462000BB24BEE00B9FF00111249F0121583D4F98
:104630006901D70112968C91EC57FD4F908180FB58
:1046400090F99083882309F41DCA0E9479069093FB
:104650004A0280934902F60182818F5F82838091B2
:1046600017059091CE03892B838380912D0284833B
:104670000680F781E02D309731F0D6011C966D91C0
:104680007C91C60109958EE08A9DF0018B9DF00D0D
:104690001124E158FD4F858181FFF1C990E080E050
:1046A0009093D5048093D6042BC080919A01909169
:1046B0009B010817190781F410929B0110929A012F
:1046C0001092C7041092C8041092C9041092CA0430
:1046D0001092CF041092CE048091D0049091D10416
:1046E000009709F495CFA8E08A16910408F0B8C99C
:1046F000642D0E944407811103C081E00E94C41709
:1047000080910A0480FF39C00E9479066C01D701AC
:1047100012968C91882309F4CBC98091190182FFEC
:1047200008C02BE432E040E0B60190E080E00E9457
:10473000051A0B31BCE51B0709F4ACC90C31ECE5DB
:104740001E0709F4ADC990911901892F8E7F90FF42
:1047500081600A31FCE51F0709F4A5C9C80190561C
:10476000811520E2920728F0905E8115904108F0B3
:10477000ADC91092160410921504033FBCE51B0747
:1047800009F4F7CA08F099CA083DFCE51F0709F4C7
:10479000EACA093D2CE5120709F403CB073D3CE5C5
:1047A000130709F096CA06E221EE41EE67ED7CE5BB
:1047B000C7010E9472193EC80031FFE51F0709F4C6
:1047C00034C801312FE5120709F040C082E02EC83D
:1047D00000313FE5130709F441C801314FE51407E3
:1047E00009F440C86801E7E5DE1AFFEFCF16D104EF
:1047F00009F060F565E772E08C2D0E940010892BAE
:1048000029F58EE08C9DF0018D9DF00D1124E1586D
:10481000FD4F8281813009F027C880917502909107
:104820007602892B99F08091770290917802892BFA
:1048300069F08091790290917A0220917B02309107
:104840007C02822B932B892B09F419C8D70112966D
:104850005C90552009F428C80F35BDE51B0709F405
:104860001FC80036EDE51E0759F00E35FDE51F07A0
:1048700009F01AC880910001882311F40C94501C8F
:104880001092000180E00E94C4170C941A1C06319B
:104890005CE5150709F0ACCA8091CE03982F9A7A8F
:1048A0002091090420FF04C0482F447409F090E0CF
:1048B00021FF04C0482F417109F090E022FF04C09D
:1048C000482F487809F090E023FF03C0827209F076
:1048D00090E0332309F4E7CB81E0911101C080E03F
:1048E00080939C0169E2911165E38AE791E00E945F
:1048F0008506A3C8A114B10409F069C8512CB12CD4
:10490000A12C80E00E94C417D092D104C092D004A0
:1049100081E08093CD04F60185818093CB04511012
:104920000EC0AB2861F0F601808191819C0124507A
:104930003109213A310508F071C80E94630CD60193
:104940001696AD90BC90C5019A9581159F4110F4C3
:10495000E0EEBE2277247394C5010197803B9D450C
:1049600008F0712CD6011996ED91FC911A973097A9
:1049700031F01B966D917C9181E00995782277202A
:1049800079F0F601868197810E943E0D8093CC04D8
:10499000C501F8E08F16910408F043C80E94F306A1
:1049A0000E94B41147C8B0E0A0E0E9EDF4E20C9435
:1049B000D3348091C301807F31F48091C001C091D4
:1049C0000702811107C0CDB7DEB7E8E00C94EF34E1
:1049D0002196C7708091C6018C17A9F3F090BE0193
:1049E000E090BF01C090C101D090C201A6016E2D20
:1049F0008F2D0E946407D0E08111EACF8E0183E001
:104A0000000F111F8A95E1F7F801E953FE4F8181EC
:104A10008E11DECF80818F11DBCF82818111D8CFC3
:104A2000E380F480EC18FD0860E08EEB91E00E94DA
:104A3000200F6EEB71E00E941410E816F90640F6A4
:104A40008091C3018F7080618093C301F801E453AA
:104A5000FE4F80818F70806180838EEB91E00E9499
:104A6000281B0E94AE0CAFCFA5E1B0E0EAE3F5E26F
:104A70000C94CC348C0185E0F801DE015196019054
:104A80000D928A95E1F7D8015C9011966C90119780
:104A90001296EC9012971396CD90DC9060E08EEB1E
:104AA00091E00E94200F8EEBA82E81E0B82E80901E
:104AB000C1019090C201A4016091BF018091BE012B
:104AC0000E9464078111A8C1F090C001F601E819A5
:104AD000F9094F0160E0FF2009F44BC1C5010E94B4
:104AE000200FB5010E9414107090C301881699061A
:104AF00008F0F2C04091C1015091C201B090BE01D6
:104B0000A090BF01872D807F6A2D09F08CC08B2D6E
:104B10000E946407FE2C811127C0D80111968C9148
:104B200011978A1121C08C918B111EC02091C40154
:104B30003091C50116968D919C9128173907A1F4E3
:104B4000E11012C0872D8F7080618093C3018EEBBE
:104B500091E00E94281B8091C301F80185838F2D6D
:104B60006596EFE00C94E834A601662D852D0E9431
:104B70006407D82E81E08E25D11080E080FF18C018
:104B80004E2D662D852D0E948E0C882389F08091F4
:104B90000C0480FF0DC08EEB91E00E94281B88E082
:104BA000EEEBF1E0DF011D928A95E9F7F12CD7CF0A
:104BB00081E08E25D11080E0B82FB170CB2E80FF20
:104BC00029C04E2D662D852D0E948E0CD82E811168
:104BD00021C0598A6A8A89899A890E94D30E292F0D
:104BE00022952F70223050F0243078F49F7051F0CD
:104BF000F8019581907F31F4FD2CB1CF9F7011F0B9
:104C00008823D1F3805E8830B8F3C8010E94281B46
:104C1000DC2CF2CFEE2009F4A2CF8091C301816099
:104C20008093C301C3CF8B2D0E946407811124C0E0
:104C3000D80111968C9111978A111EC08C918B11FD
:104C40001BC02091C4013091C50116968D919C9195
:104C500017972817390781F4E1100EC015967C923A
:104C6000C8010E94281B88E0F801AEEBB1E001907A
:104C70000D928A95E1F773CFC8010E94E00E882358
:104C800039F1EE2029F18091C3018032A0F020910A
:104C9000BE013091BF013A8729871B86DD86CC860D
:104CA0008E878091C4019091C501988B8F87CE012A
:104CB00009960E94281B88E0F801AEEBB1E0019054
:104CC0000D928A95E1F70E94D324FF24F39447CFF5
:104CD000C8010E94281BF9CF872D807F09F45BCF84
:104CE0009090BE018090BF014091C1015091C201DE
:104CF000682D892D0E94640781111CC0F8018181F3
:104D0000881118C08081891115C02091C40130918B
:104D1000C501868197812817390761F4E1100AC01F
:104D20007582C8010E94281B88E0D5011D928A95D2
:104D3000E9F715CFC8010E94E00E882349F2EE2062
:104D400039F28091C301803208F4B5CF2091BE01C1
:104D50003091BF013A8329831B82DD82CC828E830E
:104D60008091C4019091C50198878F83CE010196EF
:104D7000A0CF8EEB91E00E94200F6EEB71E00E94BD
:104D800014108816990680F6FE2CEE2009F4A0CFA8
:104D9000E090BE01D090BF014091C1015091C2018D
:104DA0006D2D8E2D0E946407811128C0F80181812C
:104DB0008D1124C080818E1121C02091C4013091B9
:104DC000C5018681978128173907C1F480910C04A9
:104DD00082FD49CF9091C30190FD45CF907F09F4AA
:104DE00042CF8091C3018583903F09F439CF982F3A
:104DF000907F905F8F70892B858332CFC8010E948E
:104E0000E00E811158CF8091C30181608093C3016E
:104E1000C8010E94281BA3CEEE2009F459CFC80177
:104E20000E94E00EF82E882309F452CF88E0F801A2
:104E3000AEEBB1E001900D928A95E1F78091BE0151
:104E40009091BF010E94D30E0E94D32488CEA0E18E
:104E5000B0E0EDE2F7E20C94D93429873A874B872A
:104E60005C876D877E878F87988BCE0109960E941D
:104E7000342581112FC088E0FE013996DE0111969C
:104E800001900D928A95E1F74C855D856A8589854B
:104E90000E94640781111EC0A091C601B0E0CD013F
:104EA0000196877099272091070228171906E1F0CB
:104EB00093E0AA0FBB1F9A95E1F7A953BE4F98E064
:104EC000FE01319601900D929A95E1F78093C6010B
:104ED0000E94AE0C809107029091C601891312C006
:104EE0006096E2E00C94F5340E941A131092C60109
:104EF0001092070288E0EEEBF1E0DF011D928A9547
:104F0000E9F7E8CFB8E08B9FC001112489539E4F89
:104F10000E943425882321F38091070290E00196B6
:104F20008770992780930702D5CFEF92FF920F9356
:104F30001F93CF93DF9380911A04882361F0C0916F
:104F400019048CE0F82E80911A04C81748F01092CA
:104F50001A0410921904CDB7DEB7E6E00C94F134D0
:104F6000EE24E394EC0EE09219040C2F10E0CF9D98
:104F7000E0011124C55EDB4F4B815C816981888132
:104F80000E94640781111DC08E819F81892B21F4AD
:104F900088859985019651F4288139814A815B8100
:104FA0006C817D818E819F810E942727F09EF00178
:104FB000F19EF00D1124E55EFB4F148213821092D6
:104FC0001705CE2DC0CF1092BE041092BD041092D2
:104FD0001A018091BC048093BB040E949D070E942B
:104FE00095270895B0E0A0E0E8EFF7E20C94CA340A
:104FF000C091BB0497E0892E01E010E02CE0322E36
:105000003EEF932E442443948091BC048C1309C03A
:105010000E9495270E949D07CDB7DEB7E1E10C9471
:10502000E634D0E0FE01EE0FFF1FED54FB4F808110
:105030009181889ED001899EB00D1124A558BB4F47
:1050400014962C911497211158C050901A04EBE13A
:10505000F4E030E020E0712C5D01251508F04BC034
:10506000E284F384D501CD90DC906FEF7FEF612C6B
:10507000462D50E0DA01AA0FBB1FAC0DBD1D0D90EF
:10508000BC91A02D109731F0EA16FB0609F4BA0185
:105090006394EECF6F3F7607A9F1D80102C0AA0F43
:1050A000BB1F6A95E2F77A2AB801062C02C0660F88
:1050B000771F0A94E2F7AB014150510974161506A7
:1050C000F9F4329EF001339EF00D1124E55EFB4FA2
:1050D000889ED001899EB00D1124A558BB4F129611
:1050E0002D913C91139737832683908291829187EB
:1050F000808715964C920E946F072196C37084CFCB
:10510000148213822F5F3F4F3C96A7CFA9E1B0E0F6
:10511000ECE8F8E20C94C934942F498B252F5A8B74
:105120006B8B7C8B8D8B4C895D89622F892F0E94C4
:105130006407811109C080919E0190919F010196A1
:1051400090939F0180939E018B8981111092170586
:105150001D861E861F86188A85E0FE017196DE0177
:10516000199601900D928A95E1F78091E30482FFF0
:105170001EC08091F1039091F203892BC1F00E942F
:1051800079062091080230910902821B930B20912D
:10519000F1033091F2038217930720F080910A0205
:1051A00082FFE2C10E94490C81110E940F0C4C85C4
:1051B0005D856A8589850E946407811111C061E05F
:1051C000CE0109960E94200F6C018B8527EFC21635
:1051D0002CE5D20681F4882321F181E080931A0125
:1051E00029853A854B855C856D857E858F85988977
:1051F0000E942727C6C038EFC3163CE5D30629F422
:10520000882379F00E94E327EBCF49EFC4164CE5E1
:10521000D40639F4882329F080911A018111F2CF44
:10522000DCCF0BE714E0512CB12CA12C22242394C9
:10523000312C2EEF422EF8014081518188248A942E
:10524000982C20E0822F90E0FC01EE0FFF1FE40F6E
:10525000F51F608171816115710531F0C616D706A1
:1052600009F44C012F5FEECFF12CFFEF8F169F0654
:1052700009F449C0F8014481F0901A018F2D4111C1
:1052800080E0F82FF170FF2EF801E58086819B8584
:10529000992309F4F8C0FF2009F4F5C060900504D3
:1052A00070900604E11013C0A101082C01C0440F46
:1052B0000A94EAF7842B868380911704909118044E
:1052C0008615970520F47092180460921704C101A6
:1052D00002C0880F991F2A95E2F70197F8012681ED
:1052E0002817190681F48091BD049091BE0400979F
:1052F00009F44BC00E945E066816790608F045C0A6
:1053000021E0F80124835F28FFEFAF1ABF0A095F8D
:105310001F4F28E0A216B10409F08DCF8B8588239A
:1053200009F40DC1552009F40AC10E947906909331
:10533000BE048093BD0480911A04883010F591E07A
:10534000980F90931A0498E0FE013996DE011196A9
:1053500001900D929A95E1F73CE0839FC0011124E2
:10536000855E9B4F28E0FE013196DC0101900D9295
:105370002A95E1F72FEF3FEFFC0131872087D38695
:10538000C2866996E2E10C94E5348091BB045091A9
:10539000BC04982FF0E0E0E0851314C09093BB04A8
:1053A000E017F10709F4AFCF90E0FC01EE0FFF1F0B
:1053B000ED54FB4FB182A0820196837099278093B0
:1053C000BC04A1CF682E712CF301EE0FFF1FED542A
:1053D000FB4F2081318147E0429FD001439FB00DB8
:1053E0001124A558BB4F6D917C911197798F688FCF
:1053F00040E020E030E0E32FF0E0EE0FFF1F688D8B
:10540000798DE60FF71F8080918081149104E1F07F
:10541000F8010190F081E02DFF8BEE8B20E005C0BC
:105420008616970609F44F2D2F5FE22FF0E0EE0F5E
:10543000FF1F6E897F89E60FF71F608171816115FB
:10544000710571F73F5FD7CF4423D1F0F8012317DF
:1054500008F0FD0121E024830E171F0721F490932B
:10546000BB04F42E50CF981305C0AE17BF0711F43C
:105470009F5F937093012F5F3F4F822F83708CCF7C
:10548000F0E0E0E0F7CF90E0E11020C0B10102C011
:10549000660F771F2A95E2F79B0121503109821789
:1054A000930731F4442309F448C0C5010E946F07F3
:1054B000C101082C01C0880F0A94EAF7982F909533
:1054C000F801868189238683FE2C1DCF9C01082C40
:1054D00002C0359527950A94E2F7A9014170552736
:1054E000BC016150710986239723892B11F5452B47
:1054F00001F1F80182819381892BC1F01B821C820A
:105500001D821E8249824A820E9479068160582F3C
:105510009D838C83F801828193818F839887298171
:105520003A814B816D817E810E942727F801158287
:10553000BFCFF22FF170EF2EBBCFEF2CB9CF9091F0
:10554000BB048091BC04981731F00E94F2275520CB
:1055500009F446CE16CF0E9495271092BE041092F1
:10556000BD040E949D07F3CF82E00E94C1121ACEB3
:10557000A5E0B0E0EEEBFAE20C94D9349093CB03C3
:105580008093CA03811520E2920730F40E942A1802
:105590002596E2E00C94F53480EF89838A831B82A0
:1055A0000E9479068160782F9D838C8349815A817E
:1055B0006B818D810E948628EBCF0F931F93CF9331
:1055C000DF938C01EB0165E772E08C2F0E940010E5
:1055D000892BA1F480910D0490910E040E94280E55
:1055E000DD27C359DD4F8881F8011282188283308C
:1055F000F1F048F4813059F0823081F0DF91CF91A1
:105600001F910F9108958430B9F08530B9F78091DA
:10561000750290917602009789F306C08091770217
:1056200090917802009799F30E94B82AE7CF809171
:10563000790290917A02F6CF80917B0290917C0260
:10564000009791F720917502309176028091770250
:105650009091780221153105F1F2009729F7C901DF
:10566000E3CFA5E0B0E0E7E3FBE20C94D9349093FC
:10567000CB038093CA03811520E2920730F40E9485
:10568000D8192596E2E00C94F53480EF89838A835B
:1056900081E08B830E9479068160782F9D838C83C3
:1056A00049815A816B818D810E948628EACFCF93F0
:1056B000DF93EC010E94312B80910D0490910E0438
:1056C0000E94280ECE010E94B82ADF91CF91089542
:1056D0000F931F93CF93DF938C01862F65E772E0C2
:1056E0000E940010892BB1F4C0917502D09176020E
:1056F000209781F0F8018281833051F4CE010E941D
:10570000572BCE010E94572BCE010E94572B02C06F
:105710008430D0F7DF91CF911F910F9108950F93AF
:105720001F93CF93DF938C01EB0165E772E08C2F21
:105730000E940010892B09F05CC0FE01FF27D801F0
:1057400012968C911297E359FD4F8130B9F415965A
:105750009C9192FF02C080830AC090FFFCCF82E040
:10576000808380917702909178020097B9F48091BC
:105770007502909176020097E1F110C08230B9F580
:1057800015968C9182FD28C080FD0BC083E080833C
:105790008091790290917A02009701F10E94312B59
:1057A00028C084E0808380917B0290917C020097E6
:1057B000A9F780917502909176020097F9F00E9406
:1057C000572B8091770290917802009739F780915A
:1057D000750290917602E2CF85E080838091750218
:1057E00090917602009729F00E94572BF0CF86E027
:1057F0008083DF91CF911F910F910895809177025F
:1058000090917802B8CF1F920F920FB60F92112489
:105810002F933F934F935F936F937F938F939F93B8
:10582000AF93BF93CF93DF93EF93FF93D091E900B2
:10583000DF708091EC00C82FC17080FDC0E810922D
:10584000E9008091F000877F8093F00078940E94B7
:1058500030131092E9008091F00088608093F0008E
:10586000CD2BCF70C093E900FF91EF91DF91CF91E5
:10587000BF91AF919F918F917F916F915F914F9168
:105880003F912F910F900FBE0F901F9018951F9270
:105890000F920FB60F9211242F933F934F935F9364
:1058A0006F937F938F939F93AF93BF93EF93FF93E8
:1058B0008091E10082FF09C08091E20082FF05C073
:1058C0008091E1008B7F8093E1008091DA0080FF7E
:1058D00024C08091D80080FF20C08091DA008E7FA4
:1058E0008093DA008091D90080FF9DC080E189BD5E
:1058F00082E189BD09B400FEFDCF81E080930C05F3
:105900008091E704811109C00E94D6040E94A1057C
:105910008091E20084608093E2008091E10080FF4A
:1059200017C08091E20080FF13C08091E2008E7F5B
:105930008093E2008091E20080618093E200809198
:10594000D80080628093D80019BC85E080930C0554
:105950008091E10084FF2BC08091E20084FF27C08A
:1059600080E189BD82E189BD89B5982F917080FF62
:10597000FBCF8091D8008F7D8093D8008091E1008B
:105980008F7E8093E1008091E2008F7E8093E20021
:105990008091E20081608093E20080910D05882370
:1059A00009F447C084E080930C0580910C05809138
:1059B000E10083FF27C08091E20083FF23C0809134
:1059C000E100877F8093E10082E080930C051092D4
:1059D0000D058091E1008E7F8093E1008091E200CF
:1059E0008E7F8093E2008091E20080618093E200EC
:1059F00042E060E080E00E946F058091F0008860E6
:105A00008093F000FF91EF91BF91AF919F918F91A3
:105A10007F916F915F914F913F912F910F900FBEAA
:105A20000F901F90189519BC10920C051092E70466
:105A300074CF8091E30087FD93E090930C05B5CF80
:105A400078941F921FB61F9211248F939F93AF9348
:105A5000BF938091DE049091DF04A091E004B091A7
:105A6000E1040196A11DB11D8093DE049093DF0433
:105A7000A093E004B093E104BF91AF919F918F9107
:105A80001F901FBE1F9018951F921FB61F921124C2
:105A90008F939F93AF93BF938091DD04811113C0C7
:105AA0008091DE049091DF04A091E004B091E104C4
:105AB0004196A11DB11D8093DE049093DF04A09355
:105AC000E004B093E104BF91AF919F918F911F903B
:105AD0001FBE1F901895CDB7DEB7EC970FB6F894A0
